:1000000012C02BC029C028C072C026C025C024C081
:1000100023C022C021C020C01FC01EC01DC01CC0E4
:100020001BC01AC089C011241FBECFEDCDBF10E088
:10003000A0E6B0E0E8E5F7E002C005900D92AA372F
:10004000B107D9F720E0AAE7B0E001C01D92AC38B3
:10005000B207E1F764D27EC3D3CF1F920F920FB6DF
:100060000F9211242F938F939F9380916100882387
:1000700049F18091820090918300839B0AC0873E62
:1000800023E092079CF4869B02C001960BC00A965F
:1000900009C083322CEF92074CF0869B02C0019777
:1000A00001C00A9790938300809382008091800022
:1000B0009091810090937F0080937E0081E08093F7
:1000C0007A000DC080916000839B04C082303CF4B4
:1000D0008F5F03C018161CF48150809360009F91BD
:1000E0008F912F910F900FBE0F901F9018951F9218
:1000F0000F920FB60F9211248F939F93AF93BF93DC
:100100008091880090918900A0918A00B0918B0025
:100110000196A11DB11D8093880090938900A09342
:100120008A00B0938B00BF91AF919F918F910F90F8
:100130000FBE0F901F9018951F920F920FB60F923F
:1001400011248F939F93809180009091810001965C
:10015000909381008093800090917B0081E08927BB
:1001600080937B009F918F910F900FBE0F901F90F7
:100170001895CF9390E49BBF83E085BF1FBC29E017
:100180002EBD99BF8BBD88EE8ABD81B5856481BDCA
:1001900081B3837B81BB87B38C6387BB88B38C635C
:1001A00088BB78947FD080E090E0B3D1C82F81E005
:1001B00090E0AFD12C2F30E0322F2227282B309324
:1001C000830020938200CF91089580917D008F5FFE
:1001D00084301CF480937D0002C010927D008091D9
:1001E0007D00082E000C990B089580917D008150B0
:1001F00087FD83E080937D0080917D00082E000CB8
:10020000990B089581309105D1F01CF4892B39F0B8
:1002100008958230910511F1039779F1089588B31B
:100220008C6388BBC29883EC99E00197F1F700C01A
:10023000000088B38C6388BB10927D00089588B35A
:100240008C6388BBC49883EC99E00197F1F700C0F8
:10025000000088B38C6388BB81E01DC088B38C63C9
:1002600088BBC39883EC99E00197F1F700C00000C8
:1002700088B38C6388BB82E00EC088B38C6388BB74
:10028000C59883EC99E00197F1F700C0000088B3AE
:100290008C6388BB83E080937D00089596DFB2CFA6
:1002A000A4DFB0CF8C9A8D9A0895E82FF0E0E25940
:1002B000FF4F80810895949A959A959894980895FF
:1002C00094989598949A959A089598E0949880FFB8
:1002D00002C0959A01C095988695949A9150B1F76D
:1002E0009498959A949A8D9880E18A95F1F700C038
:1002F000859902C08D9A959880E18A95F1F700C0A2
:100300008D9A80E18A95F1F700C00895CF93DF932D
:10031000D82FC62FD0DF84E4D8DFD2DFCCDF8D2FFB
:10032000806CD3DF8C2FD1DFCBDFC5DF88E9CDDF59
:10033000DF91CF91C5CF0F931F93CF93DF938C01A4
:10034000BADF80E4C2DFBCDFB6DF80ECBEDFE801ED
:100350000C5F1F4F8991B9DFC017D107D9F7B0DF04
:10036000AADF88E9B2DFDF91CF911F910F91A8CF6B
:10037000EF92FF920F931F93CF93DF93CDB7DD27BB
:10038000C450CDBF462FBC0169517C4F9E012F5FE9
:100390003F4F673F7A4268F080916A0090916B000E
:1003A000A0916C00B0916D0089839A83AB83BC836C
:1003B0009DC0883EE3E09E0784F0FE0135960AE08A
:1003C00010E0B8017ED1DC01A259BF4F8C9182931D
:1003D000CB01E217F307A9F784C0843691058CF0AE
:1003E000FE0135960AE010E0B8016BD1DC01A2599C
:1003F000BF4F8C918293CB01E217F307A9F71982C3
:1004000070C08A309105B4F08E010B5F1F4F7AE007
:10041000E72EF12CB70155D1FC01E259FF4F808145
:10042000F80182938F01CB01E217F30799F7198244
:100430001A8257C097FD05C019821A821B82FC01DF
:100440000CC0883FFFEF9F0764F019821A8250E4C6
:100450005B83EE27FF27E81BF90BE259FF4F8081F2
:100460003FC08E395FEF9507D4F091958195910942
:100470008E010B5F1F4F6AE0E62EF12CB70121D1F0
:10048000FC01E259FF4F8081F80182938F01CB017B
:10049000E217F30799F7198280E48A8322C0893131
:1004A000FCEF9F07C9F09195819591098E010B5F33
:1004B0001F4F5AE0E52EF12CB70103D1FC01E259A0
:1004C000FF4F8081F80182938F01CB012E173F07E8
:1004D00099F780E4898305C080E489838A838B83CC
:1004E0008C83442319F08A8180688A83C90123DFC1
:1004F000CC5FCDBFDF91CF911F910F91FF90EF9017
:100500000895E199FECF1CBA8EBB6DBBE29AE19AC9
:100510000895E199FECF8EBBE09A8DB30895CF93F5
:10052000DF93CDB7DD27C450CDBF23DE88EE882E04
:1005300083E0982EA12CB12C77247394C090620094
:10054000D0906300E0906400F09065002090660019
:1005500030906700409068005090690090E8692EE4
:1005600008E11CEF609188007091890080918A00F9
:1005700090918B00A5019401B7D030938100209316
:10058000800080917C00811106C0869904C0709221
:100590007C0010927A0080917C00813079F4869BF7
:1005A0000DC090917A00911105C09091610089274A
:1005B0008093610010927C0010927A0080917E00FE
:1005C00090917F00281B390B2330310580F08091FA
:1005D0007A00813061F46091830080E090E091DFE7
:1005E0006091820081E090E08CDF10927A0080912F
:1005F0006100882309F449C08091820090918300B2
:1006000088319C4F24F41093830000938200409122
:1006100088005091890060918A0070918B008091D0
:10062000840090918500A0918600B0918700481BBE
:10063000590B6A0B7B0B809182009091830088514B
:100640009C4F092E000CAA0BBB0B481759076A07D1
:100650007B0788F023DE8091880090918900A0912B
:100660008A00B0918B008093840090938500A093C2
:100670008600B09387008091820090918300609102
:100680007B0088519C4F74DE6DCF8091600081307B
:1006900029F419826A821B821C820FC0823031F4D5
:1006A000FDDD29823A824B825C8207C081115ACFDC
:1006B000F7DDC982DA82EB82FC82CE0101963BDE55
:1006C00051CF97FB072E16F4009406D077FD08D083
:1006D0002DD007FC05D03EF4909581959F4F08954D
:1006E000709561957F4F0895A1E21A2EAA1BBB1B3E
:1006F000FD010DC0AA1FBB1FEE1FFF1FA217B307EE
:10070000E407F50720F0A21BB30BE40BF50B661F03
:10071000771F881F991F1A9469F7609570958095C7
:1007200090959B01AC01BD01CF010895AA1BBB1B95
:1007300051E107C0AA1FBB1FA617B70710F0A61BE1
:10074000B70B881F991F5A95A9F780959095BC0102
:08075000CD010895F894FFCFDC
:10075800010140C0000000804040404040403F064A
:0A0768005B4F666D7D077F6F004058
:00000001FF
