:1000000012C02BC029C028C027C026C025C024C0CC
:1000100023C022C021C020C01FC01EC01DC01CC0E4
:100020001BC01AC019C011241FBECFEDCDBF10E0F8
:10003000A0E6B0E0E6EDF3E002C005900D92A03737
:10004000B107D9F720E0A0E7B0E001C01D92A737C3
:10005000B207E1F779D1BDC1D3CF1F920F920FB68E
:100060000F9211242F938F939F9380917100909101
:100070007200839B0AC08F3027E2920794F4869B1C
:1000800002C001960AC0059608C0181619064CF45D
:10009000869B02C0019701C00597909372008093E0
:1000A00071009F918F912F910F900FBE0F901F9015
:1000B00018958BB780648BBF85B7836085BF81B38C
:1000C000837B81BB87B38C6387BB88B38C6388BB1E
:1000D000789465C0809170008F5F843018F48093AD
:1000E000700002C0109270008091700090E008953E
:1000F0008091700081508093700090E0089581306D
:100100009105D1F01CF4892B39F0089582309105C6
:1001100011F1039779F1089588B38C6388BBC29875
:1001200083EF91E00197F1F700C0000088B38C6382
:1001300088BB10927000089588B38C6388BBC49804
:1001400083EF91E00197F1F700C0000088B38C6362
:1001500088BB81E01DC088B38C6388BBC39883EFE4
:1001600091E00197F1F700C0000088B38C6388BB71
:1001700082E00EC088B38C6388BBC59883EF91E0A2
:100180000197F1F700C0000088B38C6388BB83E05F
:100190008093700008959EDFB2CFAADFB0CF8C9A13
:1001A0008D9A0895E82FF0E0EC59FF4F8081089573
:1001B000949A959A95989498089594989598949A65
:1001C000959A089598E0949880FF02C0959A01C08E
:1001D00095988695949A9150B1F79498959A949A97
:1001E0008D9880E18A95F1F700C0859902C08D9ABB
:1001F000959880E18A95F1F700C08D9A80E18A9503
:10020000F1F700C00895CF93DF93D82FC62FD0DF2A
:1002100084E4D8DFD2DFCCDF8D2F806CD3DF8C2F4E
:10022000D1DFCBDFC5DF88E9CDDFDF91CF91C5CF4F
:100230000F931F93CF93DF938C01BADF80E4C2DF6B
:10024000BCDFB6DF80ECBEDFE8010C5F1F4F899199
:10025000B9DFC017D107D9F7B0DFAADF88E9B2DF6D
:10026000DF91CF911F910F91A8CF0F931F93CF9341
:10027000DF93CDB7DD27C450CDBFAC0149515C4FF2
:100280009E012F5F3F4F473F5A4268F080916000C8
:1002900090916100A0916200B091630089839A837C
:1002A000AB83BC8348C0883E43E0940784F0FE01E2
:1002B00035960AE010E0B80165D0DC01AC59BF4FBB
:1002C0008C918293CB012E173F07A9F734C0843657
:1002D00091058CF0FE0135960AE010E0B80152D08D
:1002E000DC01AC59BF4F8C918293CB01E217F3072D
:1002F000A9F7198220C08A30910594F0FE01359645
:100300000AE010E0B8013ED0DC01AC59BF4F8C913F
:100310008293CB012E173F07A9F719821A820BC0CF
:1003200019821A821B826AE070E02CD0FC01EC5921
:10033000FF4F80818C83C9017BDFCC5FCDBFDF9114
:10034000CF911F910F910895B4DE8091710090912B
:1003500072008BDF8091710090917200181619065F
:10036000A4F719DF8091710090917200019790932A
:1003700072008093710089EF90E00197F1F700C05F
:100380000000E3CF97FB072E16F4009406D077FD0C
:1003900008D00BD007FC05D03EF4909581959F4F77
:1003A0000895709561957F4F0895AA1BBB1B51E17D
:1003B00007C0AA1FBB1FA617B70710F0A61BB70BD5
:1003C000881F991F5A95A9F780959095BC01CD017A
:0603D0000895F894FFCF30
:1003D600404040403F065B4F666D7D077F6F0040A3
:00000001FF
