:1000000012C02BC029C028C072C026C025C024C081
:1000100023C022C021C020C01FC01EC01DC01CC0E4
:100020001BC01AC089C011241FBECFEDCDBF10E088
:10003000A0E6B0E0E2EAF7E002C005900D92AA3730
:10004000B107D9F720E0AAE7B0E001C01D92AF38B0
:10005000B207E1F778D2A3C3D3CF1F920F920FB6A6
:100060000F9211242F938F939F9380916100882387
:1000700049F18091850090918600839B0AC0873E5C
:1000800023E092079CF4869B02C001960BC00A965F
:1000900009C083322CEF92074CF0869B02C0019777
:1000A00001C00A979093860080938500809181001B
:1000B000909182009093800080937F0081E08093F4
:1000C0007B000DC080916000839B04C082303CF4B3
:1000D0008F5F03C018161CF48150809360009F91BD
:1000E0008F912F910F900FBE0F901F9018951F9218
:1000F0000F920FB60F9211248F939F93AF93BF93DC
:1001000080918B0090918C00A0918D00B0918E0019
:100110000196A11DB11D80938B0090938C00A0933C
:100120008D00B0938E00BF91AF919F918F910F90F2
:100130000FBE0F901F9018951F920F920FB60F923F
:1001400011248F939F93809181009091820001965A
:10015000909382008093810090917C0081E08927B8
:1001600080937C009F918F910F900FBE0F901F90F6
:100170001895CF9390E49BBF83E085BF1FBC29E017
:100180002EBD99BF8BBD88EE8ABD81B5856481BDCA
:1001900081B3837B81BB87B38C6387BB88B38C635C
:1001A00088BB789493D080E090E0C7D1C82F81E0DD
:1001B00090E0C3D12C2F30E0322F2227282B309310
:1001C000860020938500CF91089580917E008F5FF7
:1001D00084301CF480937E0002C010927E008091D7
:1001E0007E00082E000C990B089580917E008150AE
:1001F00087FD83E080937E0080917E00082E000CB6
:10020000990B089581309105D1F01CF4892B39F0B8
:1002100008958230910511F1039779F1089588B31B
:100220008C6388BBC29885EA9EE00197F1F700C015
:10023000000088B38C6388BB10927E00089588B359
:100240008C6388BBC49885EA9EE00197F1F700C0F3
:10025000000088B38C6388BB81E01DC088B38C63C9
:1002600088BBC39885EA9EE00197F1F700C00000C3
:1002700088B38C6388BB82E00EC088B38C6388BB74
:10028000C59885EA9EE00197F1F700C0000088B3A9
:100290008C6388BB83E080937E00089596DFB2DF95
:1002A00080918300909184000196909384008093C4
:1002B000830008959ADFA6DF8091830090918400E7
:1002C0000197909384008093830008958C9A8D9A6F
:1002D0000895E82FF0E0E259FF4F80810895949A45
:1002E000959A95989498089594989598949A959A33
:1002F000089598E0949880FF02C0959A01C095985F
:100300008695949A9150B1F79498959A949A8D986D
:1003100080E18A95F1F700C0859902C08D9A959881
:1003200080E18A95F1F700C08D9A80E18A95F1F716
:1003300000C00895CF93DF93D82FC62FD0DF84E479
:10034000D8DFD2DFCCDF8D2F806CD3DF8C2FD1DFD5
:10035000CBDFC5DF88E9CDDFDF91CF91C5CF0F932C
:100360001F93CF93DF938C01BADF80E4C2DFBCDF41
:10037000B6DF80ECBEDFE8010C5F1F4F8991B9DF6B
:10038000C017D107D9F7B0DFAADF88E9B2DFDF9164
:10039000CF911F910F91A8CFEF92FF920F931F93D0
:1003A000CF93DF93CDB7DD27C450CDBF462FBC011F
:1003B00069517C4F9E012F5F3F4F673F7A4268F043
:1003C00080916A0090916B00A0916C00B0916D00DB
:1003D00089839A83AB83BC839DC0883EE3E09E07FC
:1003E00084F0FE0135960AE010E0B8018FD1DC01FF
:1003F000A259BF4F8C918293CB01E217F307A9F763
:1004000084C0843691058CF0FE0135960AE010E038
:10041000B8017CD1DC01A259BF4F8C918293CB01F2
:10042000E217F307A9F7198270C08A309105B4F07A
:100430008E010B5F1F4F7AE0E72EF12CB70166D1DA
:10044000FC01E259FF4F8081F80182938F01CB01BB
:10045000E217F30799F719821A8257C097FD05C072
:1004600019821A821B82FC010CC0883FFFEF9F0794
:1004700064F019821A8250E45B83EE27FF27E81BA1
:10048000F90BE259FF4F80813FC08E395FEF95072E
:10049000D4F09195819591098E010B5F1F4F6AE011
:1004A000E62EF12CB70132D1FC01E259FF4F8081D9
:1004B000F80182938F01CB01E217F30799F71982B4
:1004C00080E48A8322C08931FCEF9F07C9F09195AF
:1004D000819591098E010B5F1F4F5AE0E52EF12C9B
:1004E000B70114D1FC01E259FF4F8081F8018293DA
:1004F0008F01CB012E173F0799F780E4898305C050
:1005000080E489838A838B838C83442319F08A81D6
:1005100080688A83C90123DFCC5FCDBFDF91CF9193
:100520001F910F91FF90EF900895E199FECF1CBAB3
:100530008EBB6DBBE29AE19A0895E199FECF8EBB26
:10054000E09A8DB30895CF93DF93CDB7DD27C450E4
:10055000CDBF0FDE61E08FE097E21EDF2FE78AE17B
:1005600096E0215080409040E1F700C0000061E03B
:1005700080E090E011DF88EE882E83E0982EA12C99
:10058000B12C77247394C0906200D0906300E09007
:100590006400F09065002090660030906700409005
:1005A00068005090690090E8692E08E11CEF6091A6
:1005B0008B0070918C0080918D0090918E00A50130
:1005C0009401B7D0309382002093810080917D0008
:1005D000811106C0869904C070927D0010927B0044
:1005E00080917D00813079F4869B0DC090917B00D5
:1005F000911105C09091610089278093610010924C
:100600007D0010927B0080917F0090918000281BDC
:10061000390B2330310580F080917B00813061F40B
:100620006091860080E090E080DF6091850081E04D
:1006300090E07BDF10927B0080916100882309F4B9
:1006400049C0809185009091860088319C4F24F4A8
:10065000109386000093850040918B0050918C0090
:1006600060918D0070918E0080918700909188003C
:10067000A0918900B0918A00481B590B6A0B7B0B33
:10068000809185009091860088519C4F092E000C26
:10069000AA0BBB0B481759076A077B0788F0FEDDDA
:1006A00080918B0090918C00A0918D00B0918E0074
:1006B0008093870090938800A0938900B0938A006C
:1006C000809185009091860060917C0088519C4FBC
:1006D00063DE6DCF80916000813029F419826A82D7
:1006E0001B821C820FC0823031F4D8DD29823A820D
:1006F0004B825C8207C081115ACFDCDDC982DA826D
:10070000EB82FC82CE0101962ADE51CF97FB072EA9
:1007100016F4009406D077FD08D02DD007FC05D044
:100720003EF4909581959F4F0895709561957F4F08
:100730000895A1E21A2EAA1BBB1BFD010DC0AA1F22
:10074000BB1FEE1FFF1FA217B307E407F50720F03A
:10075000A21BB30BE40BF50B661F771F881F991FB5
:100760001A9469F760957095809590959B01AC01FE
:10077000BD01CF010895AA1BBB1B51E107C0AA1FF1
:10078000BB1FA617B70710F0A61BB70B881F991F32
:100790005A95A9F780959095BC01CD010895F894DC
:0207A000FFCF89
:1007A200010140C0000000804040404040403F0600
:0A07B2005B4F666D7D077F6F00400E
:00000001FF
