:1000000012C02BC029C028C06AC026C025C024C089
:1000100023C022C021C088C01FC01EC01DC01CC07C
:100020001BC01AC019C011241FBECFEDCDBF10E0F8
:10003000A0E6B0E0EAE0F6E002C005900D92AA3733
:10004000B107D9F720E0AAE7B0E001C01D92AA38B5
:10005000B207E1F73CD2D7C2D3CF1F920F920FB6AF
:100060000F9211242F938F939F9381E080937A00B6
:10007000809161008823F1F080918000909181004F
:10008000839B0EC08F3027E292070CF5869B02C03F
:10009000019601C00596909381008093800017C05F
:1000A0008A312CEF92079CF0869B02C00197F3CF18
:1000B0000597F1CF80916000839B04C082303CF4AF
:1000C0008F5F03C018161CF48150809360009F91CD
:1000D0008F912F910F900FBE0F901F9018951F9228
:1000E0000F920FB60F9211248F939F93AF93BF93EC
:1000F0008091860090918700A0918800B09189003E
:100100000196A11DB11D8093860090938700A09356
:100110008800B0938900BF91AF919F918F910F900C
:100120000FBE0F901F9018951F920F920FB60F924F
:1001300011240F900FBE0F901F90189590E49BBF55
:1001400083E085BF1FBC29E02EBD99BF8BBD88EE23
:100150008ABD81B3837B81BB87B38C6387BB88B344
:100160008C6388BB78948FB78F7D8FBF81C080915F
:100170007D008F5F84301CF480937D0002C010925C
:100180007D0080917D00082E000C990B08958091D0
:100190007D00815087FD83E080937D0080917D000C
:1001A000082E000C990B089581309105D1F01CF4B4
:1001B000892B39F008958230910511F1039779F177
:1001C000089588B38C6388BBC29885EA9EE0019746
:1001D000F1F700C0000088B38C6388BB10927D00EB
:1001E000089588B38C6388BBC49885EA9EE0019724
:1001F000F1F700C0000088B38C6388BB81E01DC0AC
:1002000088B38C6388BBC39885EA9EE00197F1F7B9
:1002100000C0000088B38C6388BB82E00EC088B346
:100220008C6388BBC59885EA9EE00197F1F700C012
:10023000000088B38C6388BB83E080937D000895C1
:1002400096DFB2DF80917E0090917F0001969093BF
:100250007F0080937E0008959ADFA6DF80917E0064
:1002600090917F00019790937F0080937E00089586
:100270008C9A8D9A0895E82FF0E0E259FF4F808123
:100280000895949A959A9598949808959498959825
:10029000949A959A089598E0949880FF02C0959A50
:1002A00001C095988695949A9150B1F79498959A33
:1002B000949A8D9880E18A95F1F700C0859902C0E3
:1002C0008D9A959880E18A95F1F700C08D9A80E12A
:1002D0008A95F1F700C00895CF93DF93D82FC62FEA
:1002E000D0DF84E4D8DFD2DFCCDF8D2F806CD3DF8A
:1002F0008C2FD1DFCBDFC5DF88E9CDDFDF91CF9158
:10030000C5CF0F931F93CF93DF938C01BADF80E4A7
:10031000C2DFBCDFB6DF80ECBEDFE8010C5F1F4F41
:100320008991B9DFC017D107D9F7B0DFAADF88E913
:10033000B2DFDF91CF911F910F91A8CFEF92FF9283
:100340000F931F93CF93DF93CDB7DD27C450CDBF5D
:10035000462FBC0169517C4F9E012F5F3F4F673F85
:100360007A4268F080916A0090916B00A0916C00D5
:10037000B0916D0089839A83AB83BC839DC0883E16
:10038000E3E09E0784F0FE0135960AE010E0B80134
:1003900013D1DC01A259BF4F8C918293CB01E2179C
:1003A000F307A9F784C0843691058CF0FE013596D9
:1003B0000AE010E0B80100D1DC01A259BF4F8C91D6
:1003C0008293CB01E217F307A9F7198270C08A3034
:1003D0009105B4F08E010B5F1F4F7AE0E72EF12CF0
:1003E000B701EAD0FC01E259FF4F8081F801829306
:1003F0008F01CB01E217F30799F719821A8257C0D0
:1004000097FD05C019821A821B82FC010CC0883F2F
:10041000FFEF9F0764F019821A8250E45B83EE2796
:10042000FF27E81BF90BE259FF4F80813FC08E394F
:100430005FEF9507D4F09195819591098E010B5F3F
:100440001F4F6AE0E62EF12CB701B6D0FC01E2594D
:10045000FF4F8081F80182938F01CB01E217F307F0
:1004600099F7198280E48A8322C08931FCEF9F07C3
:10047000C9F09195819591098E010B5F1F4F5AE04C
:10048000E52EF12CB70198D0FC01E259FF4F808195
:10049000F80182938F01CB012E173F0799F780E473
:1004A000898305C080E489838A838B838C8344237A
:1004B00019F08A8180688A83C90123DFCC5FCDBFB0
:1004C000DF91CF911F910F91FF90EF900895CF93FF
:1004D000DF93CDB7DD27C450CDBF30DE61E08FE0C4
:1004E00097E22CDF2FE78AE196E021508040904090
:1004F000E1F700C0000061E080E090E01FDF11E064
:10050000C0906200D0906300E0906400F0906500BD
:100510008090660090906700A0906800B09069009D
:1005200000E880917C00811103C0869B10937C00C1
:1005300080917C00813041F4869B06C080936100ED
:1005400010927C0010927A00809161008823C1F0A3
:100550008091860090918700A0918800B0918900D9
:1005600094FF05C080917B00812780937B00809160
:100570007A0060917B00082E000C990BDFDED1CF52
:1005800080916000813029F419820A831B821C82C9
:100590000FC0823031F454DE89829A82AB82BC82F1
:1005A00007C08111BECF58DEC982DA82EB82FC829D
:1005B000CE010196A6DEB5CF97FB072E16F4009468
:1005C00006D077FD08D00BD007FC05D03EF49095FF
:1005D00081959F4F0895709561957F4F0895AA1B4F
:1005E000BB1B51E107C0AA1FBB1FA617B70710F01E
:1005F000A61BB70B881F991F5A95A9F78095909550
:0A060000BC01CD010895F894FFCF6E
:10060A00010140C0000000804040404040403F0699
:0A061A005B4F666D7D077F6F0040A7
:00000001FF
